{
  "contractName": "Lottery",
  "abi": [
    {
      "inputs": [],
      "payable": false,
      "stateMutability": "nonpayable",
      "type": "constructor"
    },
    {
      "anonymous": false,
      "inputs": [
        {
          "indexed": false,
          "internalType": "uint256",
          "name": "index",
          "type": "uint256"
        },
        {
          "indexed": false,
          "internalType": "address",
          "name": "bettor",
          "type": "address"
        },
        {
          "indexed": false,
          "internalType": "uint256",
          "name": "amount",
          "type": "uint256"
        },
        {
          "indexed": false,
          "internalType": "bytes",
          "name": "challenges",
          "type": "bytes"
        },
        {
          "indexed": false,
          "internalType": "uint256",
          "name": "answerBlockNumber",
          "type": "uint256"
        }
      ],
      "name": "BET",
      "type": "event"
    },
    {
      "constant": true,
      "inputs": [],
      "name": "owner",
      "outputs": [
        {
          "internalType": "address",
          "name": "",
          "type": "address"
        }
      ],
      "payable": false,
      "stateMutability": "view",
      "type": "function"
    },
    {
      "constant": false,
      "inputs": [
        {
          "internalType": "bytes",
          "name": "challenges",
          "type": "bytes"
        }
      ],
      "name": "bet",
      "outputs": [
        {
          "internalType": "bool",
          "name": "result",
          "type": "bool"
        }
      ],
      "payable": true,
      "stateMutability": "payable",
      "type": "function"
    },
    {
      "constant": true,
      "inputs": [],
      "name": "getPot",
      "outputs": [
        {
          "internalType": "uint256",
          "name": "pot",
          "type": "uint256"
        }
      ],
      "payable": false,
      "stateMutability": "view",
      "type": "function"
    },
    {
      "constant": false,
      "inputs": [],
      "name": "distrubute",
      "outputs": [],
      "payable": false,
      "stateMutability": "nonpayable",
      "type": "function"
    },
    {
      "constant": true,
      "inputs": [
        {
          "internalType": "bytes1",
          "name": "challenges",
          "type": "bytes1"
        },
        {
          "internalType": "bytes32",
          "name": "answer",
          "type": "bytes32"
        }
      ],
      "name": "isMatch",
      "outputs": [
        {
          "internalType": "enum Lottery.BettingResult",
          "name": "",
          "type": "uint8"
        }
      ],
      "payable": false,
      "stateMutability": "pure",
      "type": "function"
    },
    {
      "constant": true,
      "inputs": [
        {
          "internalType": "uint256",
          "name": "index",
          "type": "uint256"
        }
      ],
      "name": "getBetInfo",
      "outputs": [
        {
          "internalType": "uint256",
          "name": "answerBlockNumber",
          "type": "uint256"
        },
        {
          "internalType": "address",
          "name": "bettor",
          "type": "address"
        },
        {
          "internalType": "bytes",
          "name": "challenges",
          "type": "bytes"
        }
      ],
      "payable": false,
      "stateMutability": "view",
      "type": "function"
    }
  ],
  "bytecode": "0x608060405234801561001057600080fd5b5033600360006101000a81548173ffffffffffffffffffffffffffffffffffffffff021916908373ffffffffffffffffffffffffffffffffffffffff160217905550610e4a806100616000396000f3fe6080604052600436106100555760003560e01c8063403c9fa81461005a5780634d4aacad14610085578063599eac8a1461009c57806379141f801461016f5780638da5cb5b1461025d57806399a167d7146102b4575b600080fd5b34801561006657600080fd5b5061006f61033d565b6040518082815260200191505060405180910390f35b34801561009157600080fd5b5061009a610347565b005b610155600480360360208110156100b257600080fd5b81019080803590602001906401000000008111156100cf57600080fd5b8201836020820111156100e157600080fd5b8035906020019184600183028401116401000000008311171561010357600080fd5b91908080601f016020809104026020016040519081016040528093929190818152602001838380828437600081840152601f19601f820116905080830192505050505050509192919290505050610509565b604051808215151515815260200191505060405180910390f35b34801561017b57600080fd5b506101a86004803603602081101561019257600080fd5b81019080803590602001909291905050506106fb565b604051808481526020018373ffffffffffffffffffffffffffffffffffffffff1673ffffffffffffffffffffffffffffffffffffffff16815260200180602001828103825283818151815260200191508051906020019080838360005b83811015610220578082015181840152602081019050610205565b50505050905090810190601f16801561024d5780820380516001836020036101000a031916815260200191505b5094505050505060405180910390f35b34801561026957600080fd5b50610272610847565b604051808273ffffffffffffffffffffffffffffffffffffffff1673ffffffffffffffffffffffffffffffffffffffff16815260200191505060405180910390f35b3480156102c057600080fd5b50610319600480360360408110156102d757600080fd5b8101908080357effffffffffffffffffffffffffffffffffffffffffffffffffffffffffffff191690602001909291908035906020019092919050505061086d565b6040518082600281111561032957fe5b60ff16815260200191505060405180910390f35b6000600454905090565b6000610351610cf1565b600060015492505b6000548310156105045760026000848152602001908152602001600020604051806060016040529081600082015481526020016001820160009054906101000a900473ffffffffffffffffffffffffffffffffffffffff1673ffffffffffffffffffffffffffffffffffffffff1673ffffffffffffffffffffffffffffffffffffffff168152602001600282018054600181600116156101000203166002900480601f01602080910402602001604051908101604052809291908181526020018280546001816001161561010002031660029004801561047a5780601f1061044f5761010080835404028352916020019161047a565b820191906000526020600020905b81548152906001019060200180831161045d57829003601f168201915b50505050508152505091506104928260000151610b48565b9050600060028111156104a157fe5b8160028111156104ad57fe5b5050600160028111156104bc57fe5b8160028111156104c857fe5b14156104d357610504565b6002808111156104df57fe5b8160028111156104eb57fe5b50506104f683610b98565b508280600101935050610359565b505050565b60006611c37937e080003414610587576040517f08c379a000000000000000000000000000000000000000000000000000000000815260040180806020018281038252600e8152602001807f4e6f7420656e6f7567682045544800000000000000000000000000000000000081525060200191505060405180910390fd5b7f2fd14896e96d250bb5049b83d0198fc7663c624bc855bd734f54a2d56cab236b60016000540333348560034301604051808681526020018573ffffffffffffffffffffffffffffffffffffffff1673ffffffffffffffffffffffffffffffffffffffff16815260200184815260200180602001838152602001828103825284818151815260200191508051906020019080838360005b8381101561063957808201518184015260208101905061061e565b50505050905090810190601f1680156106665780820380516001836020036101000a031916815260200191505b50965050505050505060405180910390a161068082610bf8565b6106f2576040517f08c379a000000000000000000000000000000000000000000000000000000000815260040180806020018281038252601c8152602001807f4661696c656420746f206164642061206e65772042657420496e666f0000000081525060200191505060405180910390fd5b60019050919050565b6000806060610708610cf1565b60026000868152602001908152602001600020604051806060016040529081600082015481526020016001820160009054906101000a900473ffffffffffffffffffffffffffffffffffffffff1673ffffffffffffffffffffffffffffffffffffffff1673ffffffffffffffffffffffffffffffffffffffff168152602001600282018054600181600116156101000203166002900480601f01602080910402602001604051908101604052809291908181526020018280546001816001161561010002031660029004801561081f5780601f106107f45761010080835404028352916020019161081f565b820191906000526020600020905b81548152906001019060200180831161080257829003601f168201915b5050505050815250509050806000015193508060200151925080604001519150509193909250565b600360009054906101000a900473ffffffffffffffffffffffffffffffffffffffff1681565b600080839050600084905060008460006020811061088757fe5b1a60f81b905060008560006020811061089c57fe5b1a60f81b90506004847effffffffffffffffffffffffffffffffffffffffffffffffffffffffffffff1916901c93506004847effffffffffffffffffffffffffffffffffffffffffffffffffffffffffffff1916901b93506004827effffffffffffffffffffffffffffffffffffffffffffffffffffffffffffff1916901c91506004827effffffffffffffffffffffffffffffffffffffffffffffffffffffffffffff1916901b91506004837effffffffffffffffffffffffffffffffffffffffffffffffffffffffffffff1916901b92506004837effffffffffffffffffffffffffffffffffffffffffffffffffffffffffffff1916901c92506004817effffffffffffffffffffffffffffffffffffffffffffffffffffffffffffff1916901b90506004817effffffffffffffffffffffffffffffffffffffffffffffffffffffffffffff1916901c9050817effffffffffffffffffffffffffffffffffffffffffffffffffffffffffffff1916847effffffffffffffffffffffffffffffffffffffffffffffffffffffffffffff1916148015610a805750807effffffffffffffffffffffffffffffffffffffffffffffffffffffffffffff1916837effffffffffffffffffffffffffffffffffffffffffffffffffffffffffffff1916145b15610a92576001945050505050610b42565b817effffffffffffffffffffffffffffffffffffffffffffffffffffffffffffff1916847effffffffffffffffffffffffffffffffffffffffffffffffffffffffffffff19161480610b275750807effffffffffffffffffffffffffffffffffffffffffffffffffffffffffffff1916837effffffffffffffffffffffffffffffffffffffffffffffffffffffffffffff1916145b15610b39576002945050505050610b42565b60009450505050505b92915050565b60008143118015610b5c5750816101000143105b15610b6a5760009050610b93565b814311610b7a5760019050610b93565b61010082014310610b8e5760029050610b93565b600290505b919050565b6000600260008381526020019081526020016000206000808201600090556001820160006101000a81549073ffffffffffffffffffffffffffffffffffffffff0219169055600282016000610bed9190610d28565b505060019050919050565b6000610c02610cf1565b33816020019073ffffffffffffffffffffffffffffffffffffffff16908173ffffffffffffffffffffffffffffffffffffffff1681525050600343018160000181815250508281604001819052508060026000805481526020019081526020016000206000820151816000015560208201518160010160006101000a81548173ffffffffffffffffffffffffffffffffffffffff021916908373ffffffffffffffffffffffffffffffffffffffff1602179055506040820151816002019080519060200190610cd2929190610d70565b5090505060008081548092919060010191905055506001915050919050565b604051806060016040528060008152602001600073ffffffffffffffffffffffffffffffffffffffff168152602001606081525090565b50805460018160011615610100020316600290046000825580601f10610d4e5750610d6d565b601f016020900490600052602060002090810190610d6c9190610df0565b5b50565b828054600181600116156101000203166002900490600052602060002090601f016020900481019282601f10610db157805160ff1916838001178555610ddf565b82800160010185558215610ddf579182015b82811115610dde578251825591602001919060010190610dc3565b5b509050610dec9190610df0565b5090565b610e1291905b80821115610e0e576000816000905550600101610df6565b5090565b9056fea265627a7a72315820a4f361fe5add025ca8dbb9d2d3ae86f3c1919f7d2941994de5ff711e23e7afde64736f6c63430005100032",
  "source": "pragma solidity >=0.4.22 <0.9.0;\r\n\r\n\r\ncontract Lottery {\r\n    struct BetInfo{\r\n        uint256 answerBlockNumber;\r\n        address bettor;\r\n        bytes challenges;\r\n    }\r\n\r\n    uint256 private _tail; // for queue\r\n    uint256 private _head;\r\n    mapping (uint256 => BetInfo) private _bets;\r\n    address public owner;\r\n\r\n    uint256 constant internal BLOCK_LIMIT = 256;\r\n    uint256 constant internal BET_BLOCK_INTERVAL = 3;\r\n    uint256 constant internal BET_AMOUNT = 5 * 10 ** 15;\r\n    \r\n    uint256 private _pot;\r\n\r\n    enum BlockStatus {checkable, NotRevealed, BlockLimitPassed}\r\n    enum BettingResult {Fail, Win, Draw}\r\n\r\n    event BET(uint256 index, address bettor, uint256 amount, bytes challenges, uint256 answerBlockNumber );\r\n\r\n    constructor() public{\r\n        owner = msg.sender;\r\n    }\r\n    /**\r\n\r\n     * @dev 배팅, user -> 0.005 eth , 배팅용 1byte 글자를 보냄\r\n     * @param challenges 유저의 베팅 글자\r\n     * @return result 함수가 잘 수행되었는지 확인하는 bool 값\r\n\r\n    */\r\n    function bet(bytes memory challenges) public payable returns (bool result) {\r\n        require(msg.value == BET_AMOUNT, \"Not enough ETH\");\r\n\r\n        emit BET(_tail -1, msg.sender, msg.value, challenges, block.number + BET_BLOCK_INTERVAL);\r\n\r\n        require(pushBet(challenges), \"Failed to add a new Bet Info\");\r\n        return true;\r\n    }\r\n    \r\n \r\n    function getPot() public view returns(uint256 pot) {\r\n        return _pot;\r\n    }\r\n\r\n    function distrubute() public {\r\n        uint256 cur;\r\n        BetInfo memory b;\r\n        BlockStatus currentBlockStatus;\r\n        for(cur=_head; cur<_tail; cur++){\r\n            b = _bets[cur];\r\n            currentBlockStatus = getBlockStatus(b.answerBlockNumber);\r\n\r\n            if(currentBlockStatus == BlockStatus.checkable) {\r\n                \r\n            }\r\n            if(currentBlockStatus == BlockStatus.NotRevealed) {\r\n                break;\r\n            }\r\n            if(currentBlockStatus == BlockStatus.BlockLimitPassed) {\r\n                \r\n            }\r\n            popBet(cur);\r\n        }\r\n    }\r\n    /**\r\n     * @dev 베팅 글자, 정답을 확인\r\n     * @param challenges 베팅 글자\r\n     * @param answer 블락해쉬\r\n     * @return 정답 결과\r\n     */\r\n    function isMatch (bytes1 challenges, bytes32 answer) public pure returns (BettingResult) {\r\n        bytes1 c1 = challenges;\r\n        bytes1 c2 = challenges;\r\n\r\n        bytes1 a1 = answer[0];\r\n        bytes1 a2 = answer[0];\r\n\r\n        c1 = c1 >> 4;\r\n        c1 = c1 << 4;\r\n\r\n        a1 = a1 >> 4;\r\n        a1 = a1 << 4;\r\n\r\n        c2 = c2 << 4;\r\n        c2 = c2 >> 4;\r\n\r\n        a2 = a2 << 4;\r\n        a2 = a2 >> 4;\r\n\r\n        if(c1 == a1 && c2 == a2) {\r\n            return BettingResult.Win;\r\n        }\r\n        if(c1 == a1 || c2 == a2) {\r\n            return BettingResult.Draw;\r\n        }\r\n        \r\n        return BettingResult.Fail;\r\n\r\n    }   \r\n\r\n\r\n    function getBlockStatus(uint256 answerBlockNumber) internal view returns (BlockStatus) {\r\n        if(block.number > answerBlockNumber && block.number < BLOCK_LIMIT + answerBlockNumber) {\r\n            return BlockStatus.checkable;\r\n        }\r\n\r\n        if(block.number <= answerBlockNumber) {\r\n            return BlockStatus.NotRevealed;\r\n        }\r\n\r\n        if(block.number >= answerBlockNumber + BLOCK_LIMIT) {\r\n            return BlockStatus.BlockLimitPassed;\r\n        }\r\n        return BlockStatus.BlockLimitPassed; \r\n    }\r\n    function getBetInfo (uint256 index) public view returns (uint256 answerBlockNumber, address bettor, bytes memory challenges) {\r\n        BetInfo memory b = _bets[index];\r\n        answerBlockNumber = b.answerBlockNumber;\r\n        bettor = b.bettor;\r\n        challenges = b.challenges;\r\n    }\r\n    function pushBet(bytes memory challenges) internal returns (bool) {\r\n        BetInfo memory b;\r\n        b.bettor = msg.sender;\r\n        b.answerBlockNumber = block.number + BET_BLOCK_INTERVAL; \r\n        b.challenges = challenges; \r\n\r\n        _bets[_tail] = b;\r\n        _tail++;\r\n        return true;\r\n    }\r\n\r\n    function popBet(uint256 index) internal returns (bool) {\r\n        delete _bets[index];\r\n        return true;\r\n    }\r\n}",
  "sourcePath": "D:/BlockChain/Lecture_Project/Lottery_Dapp/contracts/Lottery.sol",
  "compiler": {
    "name": "solc",
    "version": "0.5.16+commit.9c3226ce.Emscripten.clang"
  },
  "schemaVersion": "3.3.4",
  "updatedAt": "2021-04-27T03:23:50.102Z",
  "devdoc": {
    "methods": {
      "bet(bytes)": {
        "details": "배팅, user -> 0.005 eth , 배팅용 1byte 글자를 보냄",
        "params": {
          "challenges": "유저의 베팅 글자"
        },
        "return": "result 함수가 잘 수행되었는지 확인하는 bool 값"
      },
      "isMatch(bytes1,bytes32)": {
        "details": "베팅 글자, 정답을 확인",
        "params": {
          "answer": "블락해쉬",
          "challenges": "베팅 글자"
        },
        "return": "정답 결과"
      }
    }
  },
  "userdoc": {
    "methods": {}
  }
}