{
  "contractName": "Lottery",
  "abi": [
    {
      "inputs": [],
      "payable": false,
      "stateMutability": "nonpayable",
      "type": "constructor"
    },
    {
      "anonymous": false,
      "inputs": [
        {
          "indexed": false,
          "internalType": "uint256",
          "name": "index",
          "type": "uint256"
        },
        {
          "indexed": false,
          "internalType": "address",
          "name": "bettor",
          "type": "address"
        },
        {
          "indexed": false,
          "internalType": "uint256",
          "name": "amount",
          "type": "uint256"
        },
        {
          "indexed": false,
          "internalType": "bytes",
          "name": "challenges",
          "type": "bytes"
        },
        {
          "indexed": false,
          "internalType": "uint256",
          "name": "answerBlockNumber",
          "type": "uint256"
        }
      ],
      "name": "BET",
      "type": "event"
    },
    {
      "constant": true,
      "inputs": [],
      "name": "owner",
      "outputs": [
        {
          "internalType": "address",
          "name": "",
          "type": "address"
        }
      ],
      "payable": false,
      "stateMutability": "view",
      "type": "function"
    },
    {
      "constant": false,
      "inputs": [
        {
          "internalType": "bytes",
          "name": "challenges",
          "type": "bytes"
        }
      ],
      "name": "bet",
      "outputs": [
        {
          "internalType": "bool",
          "name": "result",
          "type": "bool"
        }
      ],
      "payable": true,
      "stateMutability": "payable",
      "type": "function"
    },
    {
      "constant": true,
      "inputs": [],
      "name": "getPot",
      "outputs": [
        {
          "internalType": "uint256",
          "name": "pot",
          "type": "uint256"
        }
      ],
      "payable": false,
      "stateMutability": "view",
      "type": "function"
    },
    {
      "constant": true,
      "inputs": [
        {
          "internalType": "uint256",
          "name": "index",
          "type": "uint256"
        }
      ],
      "name": "getBetInfo",
      "outputs": [
        {
          "internalType": "uint256",
          "name": "answerBlockNumber",
          "type": "uint256"
        },
        {
          "internalType": "address",
          "name": "bettor",
          "type": "address"
        },
        {
          "internalType": "bytes",
          "name": "challenges",
          "type": "bytes"
        }
      ],
      "payable": false,
      "stateMutability": "view",
      "type": "function"
    }
  ],
  "bytecode": "0x608060405234801561001057600080fd5b5033600360006101000a81548173ffffffffffffffffffffffffffffffffffffffff021916908373ffffffffffffffffffffffffffffffffffffffff1602179055506107ff806100616000396000f3fe60806040526004361061003f5760003560e01c8063403c9fa814610044578063599eac8a1461006f57806379141f80146101425780638da5cb5b14610230575b600080fd5b34801561005057600080fd5b50610059610287565b6040518082815260200191505060405180910390f35b6101286004803603602081101561008557600080fd5b81019080803590602001906401000000008111156100a257600080fd5b8201836020820111156100b457600080fd5b803590602001918460018302840111640100000000831117156100d657600080fd5b91908080601f016020809104026020016040519081016040528093929190818152602001838380828437600081840152601f19601f820116905080830192505050505050509192919290505050610291565b604051808215151515815260200191505060405180910390f35b34801561014e57600080fd5b5061017b6004803603602081101561016557600080fd5b8101908080359060200190929190505050610483565b604051808481526020018373ffffffffffffffffffffffffffffffffffffffff1673ffffffffffffffffffffffffffffffffffffffff16815260200180602001828103825283818151815260200191508051906020019080838360005b838110156101f35780820151818401526020810190506101d8565b50505050905090810190601f1680156102205780820380516001836020036101000a031916815260200191505b5094505050505060405180910390f35b34801561023c57600080fd5b506102456105cf565b604051808273ffffffffffffffffffffffffffffffffffffffff1673ffffffffffffffffffffffffffffffffffffffff16815260200191505060405180910390f35b6000600454905090565b60006611c37937e08000341461030f576040517f08c379a000000000000000000000000000000000000000000000000000000000815260040180806020018281038252600e8152602001807f4e6f7420656e6f7567682045544800000000000000000000000000000000000081525060200191505060405180910390fd5b7f2fd14896e96d250bb5049b83d0198fc7663c624bc855bd734f54a2d56cab236b60016000540333348560034301604051808681526020018573ffffffffffffffffffffffffffffffffffffffff1673ffffffffffffffffffffffffffffffffffffffff16815260200184815260200180602001838152602001828103825284818151815260200191508051906020019080838360005b838110156103c15780820151818401526020810190506103a6565b50505050905090810190601f1680156103ee5780820380516001836020036101000a031916815260200191505b50965050505050505060405180910390a1610408826105f5565b61047a576040517f08c379a000000000000000000000000000000000000000000000000000000000815260040180806020018281038252601c8152602001807f4661696c656420746f206164642061206e65772042657420496e666f0000000081525060200191505060405180910390fd5b60019050919050565b60008060606104906106ee565b60026000868152602001908152602001600020604051806060016040529081600082015481526020016001820160009054906101000a900473ffffffffffffffffffffffffffffffffffffffff1673ffffffffffffffffffffffffffffffffffffffff1673ffffffffffffffffffffffffffffffffffffffff168152602001600282018054600181600116156101000203166002900480601f0160208091040260200160405190810160405280929190818152602001828054600181600116156101000203166002900480156105a75780601f1061057c576101008083540402835291602001916105a7565b820191906000526020600020905b81548152906001019060200180831161058a57829003601f168201915b5050505050815250509050806000015193508060200151925080604001519150509193909250565b600360009054906101000a900473ffffffffffffffffffffffffffffffffffffffff1681565b60006105ff6106ee565b33816020019073ffffffffffffffffffffffffffffffffffffffff16908173ffffffffffffffffffffffffffffffffffffffff1681525050600343018160000181815250508281604001819052508060026000805481526020019081526020016000206000820151816000015560208201518160010160006101000a81548173ffffffffffffffffffffffffffffffffffffffff021916908373ffffffffffffffffffffffffffffffffffffffff16021790555060408201518160020190805190602001906106cf929190610725565b5090505060008081548092919060010191905055506001915050919050565b604051806060016040528060008152602001600073ffffffffffffffffffffffffffffffffffffffff168152602001606081525090565b828054600181600116156101000203166002900490600052602060002090601f016020900481019282601f1061076657805160ff1916838001178555610794565b82800160010185558215610794579182015b82811115610793578251825591602001919060010190610778565b5b5090506107a191906107a5565b5090565b6107c791905b808211156107c35760008160009055506001016107ab565b5090565b9056fea265627a7a72315820999dde6da944313218ed325bbef03d509f28955972e17c93d7357e1ec66ffc9e64736f6c63430005100032",
  "source": "pragma solidity >=0.4.22 <0.9.0;\r\n\r\n\r\ncontract Lottery {\r\n    struct BetInfo{\r\n        uint256 answerBlockNumber;\r\n        address bettor;\r\n        bytes challenges;\r\n    }\r\n\r\n    uint256 private _tail; // for queue\r\n    uint256 private _head;\r\n    mapping (uint256 => BetInfo) private _bets;\r\n    address public owner;\r\n\r\n    uint256 constant internal BLOCK_LIMIT = 256;\r\n    uint256 constant internal BET_BLOCK_INTERVAL = 3;\r\n    uint256 constant internal BET_AMOUNT = 5 * 10 ** 15;\r\n    uint256 private _pot;\r\n\r\n    event BET(uint256 index, address bettor, uint256 amount, bytes challenges, uint256 answerBlockNumber );\r\n\r\n    constructor() public{\r\n        owner = msg.sender;\r\n    }\r\n    /**\r\n\r\n     * @dev 배팅, user -> 0.005 eth , 배팅용 1byte 글자를 보냄\r\n     * @param challenges 유저의 베팅 글자\r\n     * @return result 함수가 잘 수행되었는지 확인하는 bool 값\r\n\r\n    */\r\n    function bet(bytes memory challenges) public payable returns (bool result) {\r\n        require(msg.value == BET_AMOUNT, \"Not enough ETH\");\r\n\r\n        emit BET(_tail -1, msg.sender, msg.value, challenges, block.number + BET_BLOCK_INTERVAL);\r\n\r\n        require(pushBet(challenges), \"Failed to add a new Bet Info\");\r\n        return true;\r\n    }\r\n    \r\n \r\n    function getPot() public view returns(uint256 pot) {\r\n        return _pot;\r\n    }\r\n\r\n    function getBetInfo (uint256 index) public view returns (uint256 answerBlockNumber, address bettor, bytes memory challenges) {\r\n        BetInfo memory b = _bets[index];\r\n        answerBlockNumber = b.answerBlockNumber;\r\n        bettor = b.bettor;\r\n        challenges = b.challenges;\r\n    }\r\n    function pushBet(bytes memory challenges) internal returns (bool) {\r\n        BetInfo memory b;\r\n        b.bettor = msg.sender;\r\n        b.answerBlockNumber = block.number + BET_BLOCK_INTERVAL; \r\n        b.challenges = challenges; \r\n\r\n        _bets[_tail] = b;\r\n        _tail++;\r\n        return true;\r\n    }\r\n\r\n    function popBet(uint256 index) internal returns (bool) {\r\n        delete _bets[index];\r\n        return true;\r\n    }\r\n}",
  "sourcePath": "D:/BlockChain/BlockChain/Lecture_Project/Lottery_Dapp/contracts/Lottery.sol",
  "compiler": {
    "name": "solc",
    "version": "0.5.16+commit.9c3226ce.Emscripten.clang"
  },
  "schemaVersion": "3.3.4",
  "updatedAt": "2021-04-20T06:39:38.299Z",
  "devdoc": {
    "methods": {
      "bet(bytes)": {
        "details": "배팅, user -> 0.005 eth , 배팅용 1byte 글자를 보냄",
        "params": {
          "challenges": "유저의 베팅 글자"
        },
        "return": "result 함수가 잘 수행되었는지 확인하는 bool 값"
      }
    }
  },
  "userdoc": {
    "methods": {}
  }
}